{
  "contractName": "Escrow",
  "abi": [
    {
      "inputs": [],
      "stateMutability": "nonpayable",
      "type": "constructor"
    },
    {
      "inputs": [
        {
          "internalType": "uint256",
          "name": "_productPrice",
          "type": "uint256"
        }
      ],
      "name": "collateralizedPrice",
      "outputs": [
        {
          "internalType": "bytes32",
          "name": "",
          "type": "bytes32"
        },
        {
          "internalType": "uint256",
          "name": "",
          "type": "uint256"
        }
      ],
      "stateMutability": "nonpayable",
      "type": "function"
    },
    {
      "inputs": [
        {
          "internalType": "uint256",
          "name": "_productPrice",
          "type": "uint256"
        },
        {
          "internalType": "string",
          "name": "_productHash",
          "type": "string"
        },
        {
          "internalType": "bytes32",
          "name": "collateralIdentifier",
          "type": "bytes32"
        }
      ],
      "name": "newEscrow",
      "outputs": [
        {
          "internalType": "bytes32",
          "name": "",
          "type": "bytes32"
        }
      ],
      "stateMutability": "payable",
      "type": "function",
      "payable": true
    },
    {
      "inputs": [
        {
          "internalType": "bytes32",
          "name": "identifierHash",
          "type": "bytes32"
        }
      ],
      "name": "deposit",
      "outputs": [],
      "stateMutability": "payable",
      "type": "function",
      "payable": true
    },
    {
      "inputs": [
        {
          "internalType": "bytes32",
          "name": "identifierHash",
          "type": "bytes32"
        }
      ],
      "name": "confirmDelivery",
      "outputs": [],
      "stateMutability": "nonpayable",
      "type": "function"
    }
  ],
  "bytecode": "0x608060405234801561001057600080fd5b50336000806101000a81548173ffffffffffffffffffffffffffffffffffffffff021916908373ffffffffffffffffffffffffffffffffffffffff160217905550610d96806100606000396000f3fe60806040526004361061003f5760003560e01c80633bb95222146100445780636285b2321461007457806374950ffd146100b2578063b214faa5146100db575b600080fd5b61005e600480360381019061005991906105b6565b6100f7565b60405161006b9190610811565b60405180910390f35b34801561008057600080fd5b5061009b6004803603810190610096919061058d565b61023f565b6040516100a992919061082c565b60405180910390f35b3480156100be57600080fd5b506100d960048036038101906100d49190610564565b610247565b005b6100f560048036038101906100f09190610564565b6102ed565b005b60006005600083815260200190815260200160002054341015600260405160200161012291906107a7565b60405160208183030381529060405290610172576040517f08c379a00000000000000000000000000000000000000000000000000000000081526004016101699190610855565b60405180910390fd5b50600084843360405160200161018a939291906107d8565b604051602081830303815290604052805190602001209050846001600083815260200190815260200160002081905550836002600083815260200190815260200160002090805190602001906101e192919061042f565b50336003600083815260200190815260200160002060006101000a81548173ffffffffffffffffffffffffffffffffffffffff021916908373ffffffffffffffffffffffffffffffffffffffff160217905550809150509392505050565b600080915091565b806004600082815260200190815260200160002060009054906101000a900473ffffffffffffffffffffffffffffffffffffffff1673ffffffffffffffffffffffffffffffffffffffff163373ffffffffffffffffffffffffffffffffffffffff16146102e9576040517f08c379a00000000000000000000000000000000000000000000000000000000081526004016102e090610877565b60405180910390fd5b5050565b80600260ff1660016000838152602001908152602001600020546103119190610914565b34101560026040516020016103269190610776565b60405160208183030381529060405290610376576040517f08c379a000000000000000000000000000000000000000000000000000000000815260040161036d9190610855565b60405180910390fd5b50336004600084815260200190815260200160002060006101000a81548173ffffffffffffffffffffffffffffffffffffffff021916908373ffffffffffffffffffffffffffffffffffffffff16021790555060016006600084815260200190815260200160002060006101000a81548160ff02191690836002811115610426577f4e487b7100000000000000000000000000000000000000000000000000000000600052602160045260246000fd5b02179055505050565b82805461043b90610a03565b90600052602060002090601f01602090048101928261045d57600085556104a4565b82601f1061047657805160ff19168380011785556104a4565b828001600101855582156104a4579182015b828111156104a3578251825591602001919060010190610488565b5b5090506104b191906104b5565b5090565b5b808211156104ce5760008160009055506001016104b6565b5090565b60006104e56104e0846108bc565b610897565b9050828152602081018484840111156104fd57600080fd5b6105088482856109c1565b509392505050565b60008135905061051f81610d32565b92915050565b600082601f83011261053657600080fd5b81356105468482602086016104d2565b91505092915050565b60008135905061055e81610d49565b92915050565b60006020828403121561057657600080fd5b600061058484828501610510565b91505092915050565b60006020828403121561059f57600080fd5b60006105ad8482850161054f565b91505092915050565b6000806000606084860312156105cb57600080fd5b60006105d98682870161054f565b935050602084013567ffffffffffffffff8111156105f657600080fd5b61060286828701610525565b925050604061061386828701610510565b9150509250925092565b61062e6106298261096e565b610a66565b82525050565b61063d81610980565b82525050565b600061064e826108ed565b61065881856108f8565b93506106688185602086016109d0565b61067181610b33565b840191505092915050565b6000610687826108ed565b6106918185610909565b93506106a18185602086016109d0565b80840191505092915050565b60006106ba604c836108f8565b91506106c582610b5e565b606082019050919050565b60006106dd607c83610909565b91506106e882610bd3565b607c82019050919050565b6000610700607e83610909565b915061070b82610c6e565b607e82019050919050565b6000610723601183610909565b915061072e82610d09565b601182019050919050565b610742816109aa565b82525050565b610759610754826109aa565b610a8a565b82525050565b61077061076b826109b4565b610a94565b82525050565b600061078182610716565b915061078d828461075f565b60018201915061079c826106d0565b915081905092915050565b60006107b282610716565b91506107be828461075f565b6001820191506107cd826106f3565b915081905092915050565b60006107e48286610748565b6020820191506107f4828561067c565b9150610800828461061d565b601482019150819050949350505050565b60006020820190506108266000830184610634565b92915050565b60006040820190506108416000830185610634565b61084e6020830184610739565b9392505050565b6000602082019050818103600083015261086f8184610643565b905092915050565b60006020820190508181036000830152610890816106ad565b9050919050565b60006108a16108b2565b90506108ad8282610a35565b919050565b6000604051905090565b600067ffffffffffffffff8211156108d7576108d6610b04565b5b6108e082610b33565b9050602081019050919050565b600081519050919050565b600082825260208201905092915050565b600081905092915050565b600061091f826109aa565b915061092a836109aa565b9250817fffffffffffffffffffffffffffffffffffffffffffffffffffffffffffffffff048311821515161561096357610962610aa6565b5b828202905092915050565b60006109798261098a565b9050919050565b6000819050919050565b600073ffffffffffffffffffffffffffffffffffffffff82169050919050565b6000819050919050565b600060ff82169050919050565b82818337600083830152505050565b60005b838110156109ee5780820151818401526020810190506109d3565b838111156109fd576000848401525b50505050565b60006002820490506001821680610a1b57607f821691505b60208210811415610a2f57610a2e610ad5565b5b50919050565b610a3e82610b33565b810181811067ffffffffffffffff82111715610a5d57610a5c610b04565b5b80604052505050565b6000610a7182610a78565b9050919050565b6000610a8382610b51565b9050919050565b6000819050919050565b6000610a9f82610b44565b9050919050565b7f4e487b7100000000000000000000000000000000000000000000000000000000600052601160045260246000fd5b7f4e487b7100000000000000000000000000000000000000000000000000000000600052602260045260246000fd5b7f4e487b7100000000000000000000000000000000000000000000000000000000600052604160045260246000fd5b6000601f19601f8301169050919050565b60008160f81b9050919050565b60008160601b9050919050565b7f4f6e6c79207468652064657369676e6174656420627579657220666f7220746860008201527f697320457363726f772041677265656d656e742063616e20636f6e6669726d2060208201527f7468652064656c69766572790000000000000000000000000000000000000000604082015250565b7f7820746865207072696365206f66207468652070726f6475637420617320677560008201527f6172616e74656520666f7220746865207369676e69666963616e6365206f662060208201527f636f6e6669726d696e6720612070757263686173652028526566756e6461626c60408201527f652075706f6e20636f6e74726163742066756c66696c6c6d656e742900000000606082015250565b7f7820746865207072696365206f66207468652070726f6475637420617320677560008201527f6172616e74656520666f7220746865207369676e69666963616e6365206f662060208201527f696e6974696174696e6720616e2061677265656d656e742028526566756e646160408201527f626c652075706f6e20636f6e74726163742066756c66696c6c6d656e74290000606082015250565b7f596f75206d757374206465706f73697420000000000000000000000000000000600082015250565b610d3b81610980565b8114610d4657600080fd5b50565b610d52816109aa565b8114610d5d57600080fd5b5056fea26469706673582212203998932bc6b5569ba1163aa5a48b77e3f238051af270ebd49754372b6cf757fe64736f6c63430008040033",
  "immutableReferences": {},
  "source": "pragma solidity ^0.8.4;\n\ncontract Escrow {\n    address owner;\n\n    //Buyer will stake 2x his purchase value, which the extra will be refunded upon contract fulfillment\n    uint8 constant GUARANTEE_RATIO = 2;\n\n    constructor() {\n        owner = msg.sender;\n    }\n\n    mapping(bytes32 => uint) productPrice;\n    mapping(bytes32 => string) productHash;\n    mapping(bytes32 => address) private seller;\n    mapping(bytes32 => address) private buyer;\n\n    mapping(bytes32 => uint) collateral;\n\n    enum State {\n        AWAITING_PAYMENT,\n        AWAITING_DELIVERY,\n        COMPLETE\n    }\n\n    mapping(bytes32 => State) currentState;\n\n    modifier verifyGuaranteeRatio(bytes32 identifierHash) {\n        require(msg.value >= productPrice[identifierHash] * GUARANTEE_RATIO, string(abi.encodePacked(\"You must deposit \", GUARANTEE_RATIO,\n            \"x the price of the product as guarantee for the significance of confirming a purchase (Refundable upon contract fulfillment)\")));\n        _;\n    }\n\n    modifier onlyBuyer(bytes32 identifierHash) {\n        require(msg.sender == buyer[identifierHash], \"Only the designated buyer for this Escrow Agreement can confirm the delivery\");\n        _;\n    }\n\n    //Seller gets productPrice + collateral\n    function collateralizedPrice(uint _productPrice) public returns (bytes32, uint) {\n        //Get oracle price feed to calculate price in ETH, seller will have to send to smart contract\n    }\n\n    //Seller sends contract productPrice + collateral\n    function newEscrow(uint _productPrice, string memory _productHash, bytes32 collateralIdentifier) public payable returns (bytes32) {\n        require(msg.value >= collateral[collateralIdentifier], string(abi.encodePacked(\"You must deposit \", GUARANTEE_RATIO,\n            \"x the price of the product as guarantee for the significance of initiating an agreement (Refundable upon contract fulfillment)\")));\n\n        bytes32 hash = keccak256(abi.encodePacked(_productPrice, _productHash, msg.sender));\n\n        productPrice[hash] = _productPrice;\n        productHash[hash] = _productHash;\n        seller[hash] = msg.sender;\n\n        return hash;\n    }\n\n    function deposit(bytes32 identifierHash) verifyGuaranteeRatio(identifierHash) public payable {\n        buyer[identifierHash] = msg.sender;\n        currentState[identifierHash] = State.AWAITING_DELIVERY;\n    }\n\n    function confirmDelivery(bytes32 identifierHash) onlyBuyer(identifierHash) public {\n\n    }\n\n}\n",
  "sourcePath": "/home/jkleinne/blockchain/CipherVote/blockchain/contracts/Escrow.sol",
  "compiler": {
    "name": "solc",
    "version": "0.8.4+commit.c7e474f2.Emscripten.clang"
  },
  "schemaVersion": "3.4.1",
  "updatedAt": "2021-06-09T01:03:59.128Z",
  "networkType": "ethereum",
  "devdoc": {
    "kind": "dev",
    "methods": {},
    "version": 1
  },
  "userdoc": {
    "kind": "user",
    "methods": {},
    "version": 1
  }
}