{
  "contractName": "Escrow",
  "abi": [
    {
      "inputs": [],
      "stateMutability": "nonpayable",
      "type": "constructor"
    },
    {
      "anonymous": false,
      "inputs": [
        {
          "indexed": false,
          "internalType": "address",
          "name": "seller",
          "type": "address"
        },
        {
          "indexed": true,
          "internalType": "bytes32",
          "name": "hash",
          "type": "bytes32"
        }
      ],
      "name": "AgreementCancelled",
      "type": "event"
    },
    {
      "anonymous": false,
      "inputs": [
        {
          "indexed": false,
          "internalType": "address",
          "name": "seller",
          "type": "address"
        },
        {
          "indexed": true,
          "internalType": "bytes32",
          "name": "hash",
          "type": "bytes32"
        }
      ],
      "name": "AgreementHashCreated",
      "type": "event"
    },
    {
      "anonymous": false,
      "inputs": [
        {
          "indexed": false,
          "internalType": "address",
          "name": "buyer",
          "type": "address"
        },
        {
          "indexed": true,
          "internalType": "bytes32",
          "name": "hash",
          "type": "bytes32"
        }
      ],
      "name": "DeliveryConfirmed",
      "type": "event"
    },
    {
      "anonymous": false,
      "inputs": [
        {
          "indexed": false,
          "internalType": "address",
          "name": "buyer",
          "type": "address"
        },
        {
          "indexed": true,
          "internalType": "bytes32",
          "name": "hash",
          "type": "bytes32"
        }
      ],
      "name": "DepositMade",
      "type": "event"
    },
    {
      "anonymous": false,
      "inputs": [
        {
          "indexed": false,
          "internalType": "address",
          "name": "seller",
          "type": "address"
        },
        {
          "indexed": true,
          "internalType": "bytes32",
          "name": "hash",
          "type": "bytes32"
        },
        {
          "indexed": false,
          "internalType": "uint256",
          "name": "amount",
          "type": "uint256"
        }
      ],
      "name": "RefundRequested",
      "type": "event"
    },
    {
      "inputs": [
        {
          "internalType": "bytes32",
          "name": "",
          "type": "bytes32"
        }
      ],
      "name": "agreements",
      "outputs": [
        {
          "internalType": "bytes32",
          "name": "agreementIdentifier",
          "type": "bytes32"
        },
        {
          "internalType": "enum Escrow.State",
          "name": "currentState",
          "type": "uint8"
        },
        {
          "internalType": "uint256",
          "name": "productPrice",
          "type": "uint256"
        },
        {
          "internalType": "string",
          "name": "productHash",
          "type": "string"
        },
        {
          "components": [
            {
              "internalType": "address",
              "name": "addr",
              "type": "address"
            },
            {
              "internalType": "uint256",
              "name": "balance",
              "type": "uint256"
            },
            {
              "internalType": "bytes32",
              "name": "pubKeyHalf1",
              "type": "bytes32"
            },
            {
              "internalType": "bytes32",
              "name": "pubKeyHalf2",
              "type": "bytes32"
            }
          ],
          "internalType": "struct Escrow.Agent",
          "name": "buyer",
          "type": "tuple"
        },
        {
          "components": [
            {
              "internalType": "address",
              "name": "addr",
              "type": "address"
            },
            {
              "internalType": "uint256",
              "name": "balance",
              "type": "uint256"
            },
            {
              "internalType": "bytes32",
              "name": "pubKeyHalf1",
              "type": "bytes32"
            },
            {
              "internalType": "bytes32",
              "name": "pubKeyHalf2",
              "type": "bytes32"
            }
          ],
          "internalType": "struct Escrow.Agent",
          "name": "seller",
          "type": "tuple"
        },
        {
          "internalType": "uint256",
          "name": "expiryDate",
          "type": "uint256"
        }
      ],
      "stateMutability": "view",
      "type": "function",
      "constant": true
    },
    {
      "inputs": [
        {
          "internalType": "uint256",
          "name": "_productPrice",
          "type": "uint256"
        },
        {
          "internalType": "string",
          "name": "_productHash",
          "type": "string"
        },
        {
          "internalType": "uint256",
          "name": "_expiry",
          "type": "uint256"
        }
      ],
      "name": "newEscrow",
      "outputs": [
        {
          "internalType": "bytes32",
          "name": "",
          "type": "bytes32"
        }
      ],
      "stateMutability": "payable",
      "type": "function",
      "payable": true
    },
    {
      "inputs": [
        {
          "internalType": "bytes32",
          "name": "identifierHash",
          "type": "bytes32"
        }
      ],
      "name": "cancelAgreement",
      "outputs": [],
      "stateMutability": "nonpayable",
      "type": "function"
    },
    {
      "inputs": [
        {
          "internalType": "bytes32",
          "name": "identifierHash",
          "type": "bytes32"
        }
      ],
      "name": "deposit",
      "outputs": [],
      "stateMutability": "payable",
      "type": "function",
      "payable": true
    },
    {
      "inputs": [
        {
          "internalType": "bytes32",
          "name": "identifierHash",
          "type": "bytes32"
        }
      ],
      "name": "confirmDelivery",
      "outputs": [],
      "stateMutability": "nonpayable",
      "type": "function"
    },
    {
      "inputs": [
        {
          "internalType": "bytes32",
          "name": "identifierHash",
          "type": "bytes32"
        }
      ],
      "name": "buyerDidNotConfirm",
      "outputs": [],
      "stateMutability": "nonpayable",
      "type": "function"
    },
    {
      "inputs": [
        {
          "internalType": "bytes32",
          "name": "identifierHash",
          "type": "bytes32"
        },
        {
          "internalType": "string",
          "name": "_productHash",
          "type": "string"
        }
      ],
      "name": "disputeDelivery",
      "outputs": [],
      "stateMutability": "nonpayable",
      "type": "function"
    }
  ],
  "bytecode": "0x608060405234801561001057600080fd5b50336000806101000a81548173ffffffffffffffffffffffffffffffffffffffff021916908373ffffffffffffffffffffffffffffffffffffffff1602179055506127f3806100606000396000f3fe6080604052600436106100705760003560e01c80639e1f68c71161004e5780639e1f68c7146100f7578063b214faa51461013a578063fb2f153e14610156578063fc33c1671461017f57610070565b806302c686e3146100755780634814b68c1461009e57806374950ffd146100ce575b600080fd5b34801561008157600080fd5b5061009c600480360381019061009791906118e9565b6101a8565b005b6100b860048036038101906100b39190611966565b6103c0565b6040516100c59190611dc3565b60405180910390f35b3480156100da57600080fd5b506100f560048036038101906100f091906118e9565b610788565b005b34801561010357600080fd5b5061011e600480360381019061011991906118e9565b610bfe565b6040516101319796959493929190611dde565b60405180910390f35b610154600480360381019061014f91906118e9565b610dd1565b005b34801561016257600080fd5b5061017d600480360381019061017891906118e9565b611169565b005b34801561018b57600080fd5b506101a660048036038101906101a19190611912565b61142f565b005b600060038111156101e2577f4e487b7100000000000000000000000000000000000000000000000000000000600052602160045260246000fd5b6001600083815260200190815260200160002060010160009054906101000a900460ff16600381111561023e577f4e487b7100000000000000000000000000000000000000000000000000000000600052602160045260246000fd5b1461027e576040517f08c379a000000000000000000000000000000000000000000000000000000000815260040161027590611edb565b60405180910390fd5b6001600082815260200190815260200160002060080160000160009054906101000a900473ffffffffffffffffffffffffffffffffffffffff1673ffffffffffffffffffffffffffffffffffffffff166108fc60016000848152602001908152602001600020600801600101549081150290604051600060405180830381858888f19350505050158015610316573d6000803e3d6000fd5b5061032081611757565b807fb611c2e1b26b543fc9df1e249618e4f771dc182bd58ffe52aeee1a1372863763336040516103509190611d7f565b60405180910390a260036001600083815260200190815260200160002060010160006101000a81548160ff021916908360038111156103b8577f4e487b7100000000000000000000000000000000000000000000000000000000600052602160045260246000fd5b021790555050565b6000600260ff16846103d291906120e0565b34101560026040516020016103e79190611d33565b60405160208183030381529060405290610437576040517f08c379a000000000000000000000000000000000000000000000000000000000815260040161042e9190611e57565b60405180910390fd5b506000848433424160405160200161044f9190611ce7565b6040516020818303038152906040528051906020012060001c61047291906120af565b444261047e9190612059565b6104889190612059565b6040516020016104989190611d64565b604051602081830303815290604052805190602001206040516020016104c19493929190611f7b565b6040516020818303038152906040528051906020012090506040518060e0016040528082815260200160006003811115610524577f4e487b7100000000000000000000000000000000000000000000000000000000600052602160045260246000fd5b815260200186815260200185815260200160405180608001604052803073ffffffffffffffffffffffffffffffffffffffff168152602001600081526020016000801b81526020016000801b815250815260200160405180608001604052803373ffffffffffffffffffffffffffffffffffffffff1681526020013481526020016000801b81526020016000801b815250815260200184815250600160008381526020019081526020016000206000820151816000015560208201518160010160006101000a81548160ff0219169083600381111561062c577f4e487b7100000000000000000000000000000000000000000000000000000000600052602160045260246000fd5b02179055506040820151816002015560608201518160030190805190602001906106579291906117b4565b5060808201518160040160008201518160000160006101000a81548173ffffffffffffffffffffffffffffffffffffffff021916908373ffffffffffffffffffffffffffffffffffffffff160217905550602082015181600101556040820151816002015560608201518160030155505060a08201518160080160008201518160000160006101000a81548173ffffffffffffffffffffffffffffffffffffffff021916908373ffffffffffffffffffffffffffffffffffffffff160217905550602082015181600101556040820151816002015560608201518160030155505060c082015181600c0155905050807fd9c3e87864c787fa1f923125f860625b5a5dbc4ccd416e9a72b89ff0c49f4d68336040516107759190611d7f565b60405180910390a2809150509392505050565b806001600082815260200190815260200160002060040160000160009054906101000a900473ffffffffffffffffffffffffffffffffffffffff1673ffffffffffffffffffffffffffffffffffffffff163373ffffffffffffffffffffffffffffffffffffffff1614610830576040517f08c379a000000000000000000000000000000000000000000000000000000000815260040161082790611e9b565b60405180910390fd5b8160038081111561086a577f4e487b7100000000000000000000000000000000000000000000000000000000600052602160045260246000fd5b6001600083815260200190815260200160002060010160009054906101000a900460ff1660038111156108c6577f4e487b7100000000000000000000000000000000000000000000000000000000600052602160045260246000fd5b1415610907576040517f08c379a00000000000000000000000000000000000000000000000000000000081526004016108fe90611f3b565b60405180910390fd5b8260016003811115610942577f4e487b7100000000000000000000000000000000000000000000000000000000600052602160045260246000fd5b6001600083815260200190815260200160002060010160009054906101000a900460ff16600381111561099e577f4e487b7100000000000000000000000000000000000000000000000000000000600052602160045260246000fd5b146109de576040517f08c379a00000000000000000000000000000000000000000000000000000000081526004016109d590611f5b565b60405180910390fd5b6001600085815260200190815260200160002060080160000160009054906101000a900473ffffffffffffffffffffffffffffffffffffffff1673ffffffffffffffffffffffffffffffffffffffff166108fc60016000878152602001908152602001600020600201546001600088815260200190815260200160002060080160010154610a6c9190612059565b9081150290604051600060405180830381858888f19350505050158015610a97573d6000803e3d6000fd5b506001600085815260200190815260200160002060040160000160009054906101000a900473ffffffffffffffffffffffffffffffffffffffff1673ffffffffffffffffffffffffffffffffffffffff166108fc60016000878152602001908152602001600020600201546001600088815260200190815260200160002060040160010154610b26919061213a565b9081150290604051600060405180830381858888f19350505050158015610b51573d6000803e3d6000fd5b50610b5b84611757565b837ff72d805c408873882a00f59323b2e6e853893426d084b6f45a717924b1eb9f9d33604051610b8b9190611d7f565b60405180910390a260026001600086815260200190815260200160002060010160006101000a81548160ff02191690836003811115610bf3577f4e487b7100000000000000000000000000000000000000000000000000000000600052602160045260246000fd5b021790555050505050565b60016020528060005260406000206000915090508060000154908060010160009054906101000a900460ff1690806002015490806003018054610c409061223a565b80601f0160208091040260200160405190810160405280929190818152602001828054610c6c9061223a565b8015610cb95780601f10610c8e57610100808354040283529160200191610cb9565b820191906000526020600020905b815481529060010190602001808311610c9c57829003601f168201915b505050505090806004016040518060800160405290816000820160009054906101000a900473ffffffffffffffffffffffffffffffffffffffff1673ffffffffffffffffffffffffffffffffffffffff1673ffffffffffffffffffffffffffffffffffffffff168152602001600182015481526020016002820154815260200160038201548152505090806008016040518060800160405290816000820160009054906101000a900473ffffffffffffffffffffffffffffffffffffffff1673ffffffffffffffffffffffffffffffffffffffff1673ffffffffffffffffffffffffffffffffffffffff16815260200160018201548152602001600282015481526020016003820154815250509080600c0154905087565b80600260ff166001600083815260200190815260200160002060020154610df891906120e0565b3410156002604051602001610e0d9190611d02565b60405160208183030381529060405290610e5d576040517f08c379a0000000000000000000000000000000000000000000000000000000008152600401610e549190611e57565b60405180910390fd5b5081600380811115610e98577f4e487b7100000000000000000000000000000000000000000000000000000000600052602160045260246000fd5b6001600083815260200190815260200160002060010160009054906101000a900460ff166003811115610ef4577f4e487b7100000000000000000000000000000000000000000000000000000000600052602160045260246000fd5b1415610f35576040517f08c379a0000000000000000000000000000000000000000000000000000000008152600401610f2c90611f3b565b60405180910390fd5b8260006003811115610f70577f4e487b7100000000000000000000000000000000000000000000000000000000600052602160045260246000fd5b6001600083815260200190815260200160002060010160009054906101000a900460ff166003811115610fcc577f4e487b7100000000000000000000000000000000000000000000000000000000600052602160045260246000fd5b1461100c576040517f08c379a000000000000000000000000000000000000000000000000000000000815260040161100390611efb565b60405180910390fd5b60405180608001604052803373ffffffffffffffffffffffffffffffffffffffff1681526020013481526020016000801b81526020016000801b8152506001600086815260200190815260200160002060040160008201518160000160006101000a81548173ffffffffffffffffffffffffffffffffffffffff021916908373ffffffffffffffffffffffffffffffffffffffff160217905550602082015181600101556040820151816002015560608201518160030155905050837f44faaf9620b4ef4873aa1d61695af22a3c951a42b45c4bfaa6168a562e79dc5c336040516110f79190611d7f565b60405180910390a2600180600086815260200190815260200160002060010160006101000a81548160ff0219169083600381111561115e577f4e487b7100000000000000000000000000000000000000000000000000000000600052602160045260246000fd5b021790555050505050565b806001600082815260200190815260200160002060080160000160009054906101000a900473ffffffffffffffffffffffffffffffffffffffff1673ffffffffffffffffffffffffffffffffffffffff163373ffffffffffffffffffffffffffffffffffffffff1614611211576040517f08c379a000000000000000000000000000000000000000000000000000000000815260040161120890611f1b565b60405180910390fd5b8160016000828152602001908152602001600020600c015442101561126b576040517f08c379a000000000000000000000000000000000000000000000000000000000815260040161126290611ebb565b60405180910390fd5b60036001600085815260200190815260200160002060010160006101000a81548160ff021916908360038111156112cb577f4e487b7100000000000000000000000000000000000000000000000000000000600052602160045260246000fd5b02179055506001600084815260200190815260200160002060080160000160009054906101000a900473ffffffffffffffffffffffffffffffffffffffff1673ffffffffffffffffffffffffffffffffffffffff166108fc60016000868152602001908152602001600020600801600101549081150290604051600060405180830381858888f19350505050158015611368573d6000803e3d6000fd5b50827f8a4c36395304836e2bdd6a5898528fbbfefd56a9cd507527a183cc40d0219c1b3360016000878152602001908152602001600020600801600101546040516113b4929190611d9a565b60405180910390a26113c583611757565b60036001600085815260200190815260200160002060010160006101000a81548160ff02191690836003811115611425577f4e487b7100000000000000000000000000000000000000000000000000000000600052602160045260246000fd5b0217905550505050565b816001600082815260200190815260200160002060040160000160009054906101000a900473ffffffffffffffffffffffffffffffffffffffff1673ffffffffffffffffffffffffffffffffffffffff163373ffffffffffffffffffffffffffffffffffffffff16146114d7576040517f08c379a00000000000000000000000000000000000000000000000000000000081526004016114ce90611e9b565b60405180910390fd5b6000600160008581526020019081526020016000206004016040518060800160405290816000820160009054906101000a900473ffffffffffffffffffffffffffffffffffffffff1673ffffffffffffffffffffffffffffffffffffffff1673ffffffffffffffffffffffffffffffffffffffff168152602001600182015481526020016002820154815260200160038201548152505090506000600160008681526020019081526020016000206008016040518060800160405290816000820160009054906101000a900473ffffffffffffffffffffffffffffffffffffffff1673ffffffffffffffffffffffffffffffffffffffff1673ffffffffffffffffffffffffffffffffffffffff168152602001600182015481526020016002820154815260200160038201548152505090506000600160008781526020019081526020016000206003016040516020016116319190611e79565b60405160208183030381529060405280519060200120856040516020016116589190611e57565b604051602081830303815290604052805190602001201415905080611681578160000151611687565b82600001515b73ffffffffffffffffffffffffffffffffffffffff166108fc826116af5783602001516116b5565b84602001515b9081150290604051600060405180830381858888f193505050501580156116e0573d6000803e3d6000fd5b506116ea86611757565b60026001600088815260200190815260200160002060010160006101000a81548160ff0219169083600381111561174a577f4e487b7100000000000000000000000000000000000000000000000000000000600052602160045260246000fd5b0217905550505050505050565b60006001600083815260200190815260200160002060080160010181905550600060016000838152602001908152602001600020600401600101819055506000600160008381526020019081526020016000206002018190555050565b8280546117c09061223a565b90600052602060002090601f0160209004810192826117e25760008555611829565b82601f106117fb57805160ff1916838001178555611829565b82800160010185558215611829579182015b8281111561182857825182559160200191906001019061180d565b5b509050611836919061183a565b5090565b5b8082111561185357600081600090555060010161183b565b5090565b600061186a61186584611fec565b611fc7565b90508281526020810184848401111561188257600080fd5b61188d8482856121f8565b509392505050565b6000813590506118a48161278f565b92915050565b600082601f8301126118bb57600080fd5b81356118cb848260208601611857565b91505092915050565b6000813590506118e3816127a6565b92915050565b6000602082840312156118fb57600080fd5b600061190984828501611895565b91505092915050565b6000806040838503121561192557600080fd5b600061193385828601611895565b925050602083013567ffffffffffffffff81111561195057600080fd5b61195c858286016118aa565b9150509250929050565b60008060006060848603121561197b57600080fd5b6000611989868287016118d4565b935050602084013567ffffffffffffffff8111156119a657600080fd5b6119b2868287016118aa565b92505060406119c3868287016118d4565b9150509250925092565b6119de6119d982612180565b61229d565b82525050565b6119ed8161216e565b82525050565b6119fc8161216e565b82525050565b611a0b81612192565b82525050565b611a1a81612192565b82525050565b611a29816121e6565b82525050565b6000611a3a82612032565b611a44818561203d565b9350611a54818560208601612207565b611a5d816123c8565b840191505092915050565b60008154611a758161223a565b611a7f818661203d565b94506001821660008114611a9a5760018114611aac57611adf565b60ff1983168652602086019350611adf565b611ab58561201d565b60005b83811015611ad757815481890152600182019150602081019050611ab8565b808801955050505b50505092915050565b6000611af5604c8361203d565b9150611b00826123f3565b606082019050919050565b6000611b1860298361203d565b9150611b2382612468565b604082019050919050565b6000611b3b607c8361204e565b9150611b46826124b7565b607c82019050919050565b6000611b5e607e8361204e565b9150611b6982612552565b607e82019050919050565b6000611b8160328361203d565b9150611b8c826125ed565b604082019050919050565b6000611ba460188361203d565b9150611baf8261263c565b602082019050919050565b6000611bc7604b8361203d565b9150611bd282612665565b606082019050919050565b6000611bea60218361203d565b9150611bf5826126da565b604082019050919050565b6000611c0d60198361203d565b9150611c1882612729565b602082019050919050565b6000611c3060118361204e565b9150611c3b82612752565b601182019050919050565b608082016000820151611c5c60008501826119e4565b506020820151611c6f6020850182611c9b565b506040820151611c826040850182611a02565b506060820151611c956060850182611a02565b50505050565b611ca4816121cf565b82525050565b611cb3816121cf565b82525050565b611cca611cc5826121cf565b6122c1565b82525050565b611ce1611cdc826121d9565b6122cb565b82525050565b6000611cf382846119cd565b60148201915081905092915050565b6000611d0d82611c23565b9150611d198284611cd0565b600182019150611d2882611b2e565b915081905092915050565b6000611d3e82611c23565b9150611d4a8284611cd0565b600182019150611d5982611b51565b915081905092915050565b6000611d708284611cb9565b60208201915081905092915050565b6000602082019050611d9460008301846119f3565b92915050565b6000604082019050611daf60008301856119f3565b611dbc6020830184611caa565b9392505050565b6000602082019050611dd86000830184611a11565b92915050565b60006101a082019050611df4600083018a611a11565b611e016020830189611a20565b611e0e6040830188611caa565b8181036060830152611e208187611a2f565b9050611e2f6080830186611c46565b611e3d610100830185611c46565b611e4b610180830184611caa565b98975050505050505050565b60006020820190508181036000830152611e718184611a2f565b905092915050565b60006020820190508181036000830152611e938184611a68565b905092915050565b60006020820190508181036000830152611eb481611ae8565b9050919050565b60006020820190508181036000830152611ed481611b0b565b9050919050565b60006020820190508181036000830152611ef481611b74565b9050919050565b60006020820190508181036000830152611f1481611b97565b9050919050565b60006020820190508181036000830152611f3481611bba565b9050919050565b60006020820190508181036000830152611f5481611bdd565b9050919050565b60006020820190508181036000830152611f7481611c00565b9050919050565b6000608082019050611f906000830187611caa565b8181036020830152611fa28186611a2f565b9050611fb160408301856119f3565b611fbe6060830184611a11565b95945050505050565b6000611fd1611fe2565b9050611fdd828261226c565b919050565b6000604051905090565b600067ffffffffffffffff82111561200757612006612399565b5b612010826123c8565b9050602081019050919050565b60008190508160005260206000209050919050565b600081519050919050565b600082825260208201905092915050565b600081905092915050565b6000612064826121cf565b915061206f836121cf565b9250827fffffffffffffffffffffffffffffffffffffffffffffffffffffffffffffffff038211156120a4576120a36122dd565b5b828201905092915050565b60006120ba826121cf565b91506120c5836121cf565b9250826120d5576120d461230c565b5b828204905092915050565b60006120eb826121cf565b91506120f6836121cf565b9250817fffffffffffffffffffffffffffffffffffffffffffffffffffffffffffffffff048311821515161561212f5761212e6122dd565b5b828202905092915050565b6000612145826121cf565b9150612150836121cf565b925082821015612163576121626122dd565b5b828203905092915050565b6000612179826121af565b9050919050565b600061218b826121af565b9050919050565b6000819050919050565b60008190506121aa8261277b565b919050565b600073ffffffffffffffffffffffffffffffffffffffff82169050919050565b6000819050919050565b600060ff82169050919050565b60006121f18261219c565b9050919050565b82818337600083830152505050565b60005b8381101561222557808201518184015260208101905061220a565b83811115612234576000848401525b50505050565b6000600282049050600182168061225257607f821691505b602082108114156122665761226561236a565b5b50919050565b612275826123c8565b810181811067ffffffffffffffff8211171561229457612293612399565b5b80604052505050565b60006122a8826122af565b9050919050565b60006122ba826123e6565b9050919050565b6000819050919050565b60006122d6826123d9565b9050919050565b7f4e487b7100000000000000000000000000000000000000000000000000000000600052601160045260246000fd5b7f4e487b7100000000000000000000000000000000000000000000000000000000600052601260045260246000fd5b7f4e487b7100000000000000000000000000000000000000000000000000000000600052602160045260246000fd5b7f4e487b7100000000000000000000000000000000000000000000000000000000600052602260045260246000fd5b7f4e487b7100000000000000000000000000000000000000000000000000000000600052604160045260246000fd5b6000601f19601f8301169050919050565b60008160f81b9050919050565b60008160601b9050919050565b7f4f6e6c79207468652064657369676e6174656420627579657220666f7220746860008201527f697320457363726f772041677265656d656e742063616e20636f6e6669726d2060208201527f7468652064656c69766572790000000000000000000000000000000000000000604082015250565b7f5468697320657363726f772061677265656d656e7420686173206e6f7420796560008201527f7420657870697265640000000000000000000000000000000000000000000000602082015250565b7f7820746865207072696365206f66207468652070726f6475637420617320677560008201527f6172616e74656520666f7220746865207369676e69666963616e6365206f662060208201527f636f6e6669726d696e6720612070757263686173652028526566756e6461626c60408201527f652075706f6e20636f6e74726163742066756c66696c6c6d656e742900000000606082015250565b7f7820746865207072696365206f66207468652070726f6475637420617320677560008201527f6172616e74656520666f7220746865207369676e69666963616e6365206f662060208201527f696e6974696174696e6720616e2061677265656d656e742028526566756e646160408201527f626c652075706f6e20636f6e74726163742066756c66696c6c6d656e74290000606082015250565b7f436f6e747261637420686173206265656e206c6f636b65642c20616374696f6e60008201527f206973206e6f7720696d706f737369626c650000000000000000000000000000602082015250565b7f5061796d656e7420616c72656164792072656365697665640000000000000000600082015250565b7f4f6e6c79207468652064657369676e617465642073656c6c657220666f72207460008201527f68697320457363726f772041677265656d656e742063616e2063616c6c20746860208201527f69732066756e6374696f6e000000000000000000000000000000000000000000604082015250565b7f5468697320657363726f772061677265656d656e74206861732065787069726560008201527f6400000000000000000000000000000000000000000000000000000000000000602082015250565b7f44656c697665727920616c726561647920726563656976656400000000000000600082015250565b7f596f75206d757374206465706f73697420000000000000000000000000000000600082015250565b6004811061278c5761278b61233b565b5b50565b61279881612192565b81146127a357600080fd5b50565b6127af816121cf565b81146127ba57600080fd5b5056fea2646970667358221220e971b3004ebe695e561a1d5cc311dc0e662b15776e3307a810463c19ab7d26b264736f6c63430008040033",
  "immutableReferences": {},
  "source": "pragma solidity ^0.8.4;\n\ncontract Escrow {\n    address owner;\n\n    // Buyer will stake 2x his purchase value, which the extra will be refunded upon contract fulfillment\n    uint8 constant GUARANTEE_RATIO = 2;\n\n    constructor() {\n        owner = msg.sender;\n    }\n\n    struct Agent {\n        address addr;\n        uint balance;\n\n        bytes32 pubKeyHalf1;\n        bytes32 pubKeyHalf2;\n    }\n\n    struct Agreement {\n        bytes32 agreementIdentifier;\n        State currentState;\n\n        uint productPrice;\n        string productHash; // placeholder, will have more details once encrypt-and-swap is implemented\n        Agent buyer;\n        Agent seller;\n        uint expiryDate;\n    }\n    mapping(bytes32 => Agreement) public agreements;\n\n    enum State {\n        AWAITING_PAYMENT,\n        AWAITING_DELIVERY,\n        COMPLETE,\n        EXPIRED\n    }\n\n    event AgreementHashCreated(address seller, bytes32 indexed hash);\n    event DepositMade(address buyer, bytes32 indexed hash);\n    event AgreementCancelled(address seller, bytes32 indexed hash);\n    event DeliveryConfirmed(address buyer, bytes32 indexed hash);\n    event RefundRequested(address seller, bytes32 indexed hash, uint amount);\n\n    modifier verifyGuaranteeRatio(bytes32 identifierHash) {\n        require(msg.value >= agreements[identifierHash].productPrice * GUARANTEE_RATIO, string(abi.encodePacked(\"You must deposit \", GUARANTEE_RATIO,\n            \"x the price of the product as guarantee for the significance of confirming a purchase (Refundable upon contract fulfillment)\")));\n        _;\n    }\n\n    modifier onlyBuyer(bytes32 identifierHash) {\n        require(msg.sender == agreements[identifierHash].buyer.addr, \"Only the designated buyer for this Escrow Agreement can confirm the delivery\");\n        _;\n    }\n\n    modifier onlySeller(bytes32 identifierHash) {\n        require(msg.sender == agreements[identifierHash].seller.addr, \"Only the designated seller for this Escrow Agreement can call this function\");\n        _;\n    }\n\n    modifier notExpired(bytes32 identifierHash) {\n        require(agreements[identifierHash].currentState != State.EXPIRED, \"This escrow agreement has expired\");\n        _;\n    }\n\n    modifier isExpired(bytes32 identifierHash) {\n        require(block.timestamp >= agreements[identifierHash].expiryDate, \"This escrow agreement has not yet expired\");\n        _;\n    }\n\n    modifier isAwaitingPayment(bytes32 identifierHash) {\n        require(agreements[identifierHash].currentState == State.AWAITING_PAYMENT, \"Payment already received\");\n        _;\n    }\n\n    modifier isAwaitingDelivery(bytes32 identifierHash) {\n        require(agreements[identifierHash].currentState == State.AWAITING_DELIVERY, \"Delivery already received\");\n        _;\n    }\n\n    function resetBalances(bytes32 identifierHash) internal {\n        agreements[identifierHash].seller.balance = 0;\n        agreements[identifierHash].buyer.balance = 0;\n\n        agreements[identifierHash].productPrice = 0;\n    }\n\n    //Seller sends contract productPrice + collateral\n    function newEscrow(uint _productPrice, string memory _productHash, uint _expiry) public payable returns (bytes32) {\n        require(msg.value >= _productPrice * GUARANTEE_RATIO, string(abi.encodePacked(\"You must deposit \", GUARANTEE_RATIO,\n            \"x the price of the product as guarantee for the significance of initiating an agreement (Refundable upon contract fulfillment)\")));\n\n        bytes32 hash = keccak256(abi.encode(_productPrice, _productHash, msg.sender,\n            keccak256(abi.encodePacked(block.timestamp + block.difficulty + uint(\n            keccak256(abi.encodePacked(block.coinbase))) / block.timestamp))\n            )\n        );\n\n        // placeholder buyer, seller public key set as 0 for now, will readjust when implementing encrypt-and-swap -> See https://github.com/CipherSpell/CipherPact/issues/10\n        agreements[hash] = Agreement(hash, State.AWAITING_PAYMENT, _productPrice, _productHash, Agent(address(this),0, 0, 0), Agent(msg.sender, msg.value, 0, 0), _expiry);\n\n        emit AgreementHashCreated(msg.sender, hash);\n\n        return hash;\n    }\n\n    /* Allows seller to cancel the agreement and retrieves his eth. Can only be called before buyer deposits\n     * ether and locks the contract\n     */\n    function cancelAgreement(bytes32 identifierHash) public {\n        require(agreements[identifierHash].currentState == State.AWAITING_PAYMENT, \"Contract has been locked, action is now impossible\");\n        payable(agreements[identifierHash].seller.addr).transfer(agreements[identifierHash].seller.balance);\n\n        resetBalances(identifierHash);\n        emit AgreementCancelled(msg.sender, identifierHash);\n\n        agreements[identifierHash].currentState = State.EXPIRED;\n    }\n\n    function deposit(bytes32 identifierHash) verifyGuaranteeRatio(identifierHash) notExpired(identifierHash) isAwaitingPayment(identifierHash) public payable {\n        agreements[identifierHash].buyer = Agent(msg.sender, msg.value, 0, 0);\n\n        emit DepositMade(msg.sender, identifierHash);\n\n        agreements[identifierHash].currentState = State.AWAITING_DELIVERY;\n    }\n\n    function confirmDelivery(bytes32 identifierHash) onlyBuyer(identifierHash) notExpired(identifierHash) isAwaitingDelivery(identifierHash) public {\n        payable(agreements[identifierHash].seller.addr).transfer(agreements[identifierHash].seller.balance + agreements[identifierHash].productPrice);\n        payable(agreements[identifierHash].buyer.addr).transfer(agreements[identifierHash].buyer.balance - agreements[identifierHash].productPrice); // Send back buyer's collateral\n\n        resetBalances(identifierHash);\n        emit DeliveryConfirmed(msg.sender, identifierHash);\n\n        agreements[identifierHash].currentState = State.COMPLETE;\n    }\n\n    function buyerDidNotConfirm(bytes32 identifierHash) onlySeller(identifierHash) isExpired(identifierHash) public {\n        agreements[identifierHash].currentState = State.EXPIRED;\n        payable(agreements[identifierHash].seller.addr).transfer(agreements[identifierHash].seller.balance);\n\n        emit RefundRequested(msg.sender, identifierHash, agreements[identifierHash].seller.balance);\n        resetBalances(identifierHash);\n\n        agreements[identifierHash].currentState = State.EXPIRED;\n    }\n\n    /* TODO Escrow via encrypt-and-swap -> See https://github.com/CipherSpell/CipherPact/issues/10\n     * Digital products esscrows will be enforced by Public Key Cryptography while physical products\n     * escrows, with Kleros (a decentralized arbitration service) https://www.youtube.com/watch?v=WA0-A9lMaSI\n     */\n    function disputeDelivery(bytes32 identifierHash, string memory _productHash) onlyBuyer(identifierHash) public {\n        /*\n         * Very naive implementation for now (just acting as a placeholder while I research for better methods). Logic\n         * being that the buyer contests the delivery by sending to the contract the hash of the delivered product.\n         * Should there be a mismatch, the seller has cheated and the buyer will receive their collateral back, and the\n         * seller's slashed. Should there be no mismatch, then the buyer has attempted a fraudulent dispute and will have\n         * their collateral slashed.\n         *\n         * Problems with current implementation: Relies on the honesty of the buyer to submit the real productHash\n         * obtained (doesn't make sense if we are advocating for a trustless nature). Because product delivery happens\n         * off-chain, nothing stops the buyer from initiating a dispute with a falsy productHash since the contract\n         * has no way to know.\n         *\n         * Potential solution: Add validators to act as arbitrators -> Seller and Buyer both agree on the number of\n         * validators -> Seller initiates new Agreement with both Seller and Buyer public keys and generated\n         * productHash -> Seller encrypts the digital product with the Buyer's public key -> Seller delivers the digital\n         * product to validators via contract-generated .onion link -> Validators hash the product\n         *\n         * Validators get a percentage of the convicted party's collateral\n         */\n\n        Agent memory buyer = agreements[identifierHash].buyer;\n        Agent memory seller = agreements[identifierHash].seller;\n\n        bool mismatch = keccak256(abi.encode(_productHash)) != keccak256(abi.encode(agreements[identifierHash].productHash));\n\n        payable(mismatch ? buyer.addr : seller.addr).transfer(mismatch ? buyer.balance : seller.balance);\n        resetBalances(identifierHash);\n\n        agreements[identifierHash].currentState = State.COMPLETE;\n    }\n\n}\n",
  "sourcePath": "/home/jkleinne/Development/blockchain/CipherPact/blockchain/contracts/Escrow.sol",
  "compiler": {
    "name": "solc",
    "version": "0.8.4+commit.c7e474f2.Emscripten.clang"
  },
  "schemaVersion": "3.4.2",
  "updatedAt": "2021-07-29T02:59:26.131Z",
  "networkType": "ethereum",
  "devdoc": {
    "kind": "dev",
    "methods": {},
    "version": 1
  },
  "userdoc": {
    "kind": "user",
    "methods": {},
    "version": 1
  }
}